{
  "contractName": "ProxyDelegate",
  "abi": [
    {
      "inputs": [
        {
          "internalType": "address",
          "name": "delegateAddress",
          "type": "address"
        }
      ],
      "payable": false,
      "stateMutability": "nonpayable",
      "type": "constructor"
    },
    {
      "anonymous": false,
      "inputs": [
        {
          "indexed": false,
          "internalType": "bytes",
          "name": "result",
          "type": "bytes"
        }
      ],
      "name": "LogResult",
      "type": "event"
    },
    {
      "payable": false,
      "stateMutability": "nonpayable",
      "type": "fallback"
    },
    {
      "constant": true,
      "inputs": [],
      "name": "delegate",
      "outputs": [
        {
          "internalType": "address",
          "name": "",
          "type": "address"
        }
      ],
      "payable": false,
      "stateMutability": "view",
      "type": "function"
    },
    {
      "constant": true,
      "inputs": [],
      "name": "owner",
      "outputs": [
        {
          "internalType": "address",
          "name": "",
          "type": "address"
        }
      ],
      "payable": false,
      "stateMutability": "view",
      "type": "function"
    },
    {
      "constant": true,
      "inputs": [],
      "name": "version",
      "outputs": [
        {
          "internalType": "uint256",
          "name": "",
          "type": "uint256"
        }
      ],
      "payable": false,
      "stateMutability": "view",
      "type": "function"
    }
  ],
  "bytecode": "0x608060405234801561001057600080fd5b506040516103ff3803806103ff8339818101604052602081101561003357600080fd5b810190808051906020019092919050505033600160006101000a81548173ffffffffffffffffffffffffffffffffffffffff021916908373ffffffffffffffffffffffffffffffffffffffff16021790555080600260006101000a81548173ffffffffffffffffffffffffffffffffffffffff021916908373ffffffffffffffffffffffffffffffffffffffff16021790555050610329806100d66000396000f3fe608060405234801561001057600080fd5b50600436106100415760003560e01c806354fd4d50146101f05780638da5cb5b1461020e578063c89e436114610258575b60006060600260009054906101000a900473ffffffffffffffffffffffffffffffffffffffff1673ffffffffffffffffffffffffffffffffffffffff166000366040518083838082843780830192505050925050506000604051808303816000865af19150503d80600081146100d3576040519150601f19603f3d011682016040523d82523d6000602084013e6100d8565b606091505b509150915081610150576040517f08c379a00000000000000000000000000000000000000000000000000000000081526004018080602001828103825260148152602001807f65787465726e616c2063616c6c206661696c656400000000000000000000000081525060200191505060405180910390fd5b7f958c0193cea72acb1ba51b31092fb4edff6e5bf84a2289db7e76bea413645df3816040518080602001828103825283818151815260200191508051906020019080838360005b838110156101b2578082015181840152602081019050610197565b50505050905090810190601f1680156101df5780820380516001836020036101000a031916815260200191505b509250505060405180910390a15050005b6101f86102a2565b6040518082815260200191505060405180910390f35b6102166102a8565b604051808273ffffffffffffffffffffffffffffffffffffffff1673ffffffffffffffffffffffffffffffffffffffff16815260200191505060405180910390f35b6102606102ce565b604051808273ffffffffffffffffffffffffffffffffffffffff1673ffffffffffffffffffffffffffffffffffffffff16815260200191505060405180910390f35b60005481565b600160009054906101000a900473ffffffffffffffffffffffffffffffffffffffff1681565b600260009054906101000a900473ffffffffffffffffffffffffffffffffffffffff168156fea265627a7a7231582096b7fe9a22c91b2940bd56254a147f30728d96003bf8b68e6773c593e1c7b82264736f6c63430005100032",
  "source": "pragma solidity ^0.5.0;\n\ncontract ProxyDelegate {\n    uint256 public version;\n    address public owner;\n    address public delegate; // contract to delegate calls to\n\n    event LogResult(bytes result);\n\n    constructor(address delegateAddress) public {\n        owner = msg.sender;\n        delegate = delegateAddress;\n    }\n\n    function() external {\n        (bool success, bytes memory returnData) = delegate.call(msg.data);\n        require(success, \"external call failed\");\n        emit LogResult(returnData);\n    }\n}\n",
  "sourcePath": "/home/leo/Documents/Advanced_Smart_Contract/proxy-delegate/contracts/ProxyCall.sol",
  "compiler": {
    "name": "solc",
    "version": "0.5.16+commit.9c3226ce.Emscripten.clang"
  },
  "schemaVersion": "3.0.23",
  "updatedAt": "2020-03-11T01:26:13.883Z",
  "devdoc": {
    "methods": {}
  },
  "userdoc": {
    "methods": {}
  }
}