{
  "contractName": "SomeLibrary",
  "abi": [
    {
      "constant": true,
      "inputs": [],
      "name": "version",
      "outputs": [
        {
          "internalType": "uint256",
          "name": "",
          "type": "uint256"
        }
      ],
      "payable": false,
      "stateMutability": "view",
      "type": "function"
    },
    {
      "constant": false,
      "inputs": [
        {
          "internalType": "uint256",
          "name": "newVersion",
          "type": "uint256"
        }
      ],
      "name": "setVersion",
      "outputs": [],
      "payable": false,
      "stateMutability": "nonpayable",
      "type": "function"
    },
    {
      "constant": true,
      "inputs": [],
      "name": "getMsgSender",
      "outputs": [
        {
          "internalType": "address",
          "name": "",
          "type": "address"
        }
      ],
      "payable": false,
      "stateMutability": "view",
      "type": "function"
    }
  ],
  "bytecode": "0x6080604052600160005534801561001557600080fd5b5061011d806100256000396000f3fe6080604052348015600f57600080fd5b5060043610603c5760003560e01c8063408def1e14604157806354fd4d5014606c5780637a6ce2e1146088575b600080fd5b606a60048036036020811015605557600080fd5b810190808035906020019092919050505060d0565b005b607260da565b6040518082815260200191505060405180910390f35b608e60e0565b604051808273ffffffffffffffffffffffffffffffffffffffff1673ffffffffffffffffffffffffffffffffffffffff16815260200191505060405180910390f35b8060008190555050565b60005481565b60003390509056fea265627a7a723158204b24131a594a0523365a84913ca32998e1e44e683aef97a32060c1c1b639d6f064736f6c63430005100032",
  "source": "pragma solidity ^0.5.0;\n\ncontract SomeLibrary {\n    uint256 public version = 1;\n\n    function setVersion(uint256 newVersion) public {\n        version = newVersion;\n    }\n\n    function getMsgSender() public view returns (address) {\n        return msg.sender;\n    }\n}\n",
  "sourcePath": "/home/leo/Documents/Advanced_Smart_Contract/proxy-delegate/contracts/SomeLibrary.sol",
  "compiler": {
    "name": "solc",
    "version": "0.5.16+commit.9c3226ce.Emscripten.clang"
  },
  "schemaVersion": "3.0.23",
  "updatedAt": "2020-03-11T01:24:58.349Z",
  "devdoc": {
    "methods": {}
  },
  "userdoc": {
    "methods": {}
  }
}